{
  "contractName": "Greeter",
  "abi": [
    {
      "inputs": [],
      "stateMutability": "nonpayable",
      "type": "constructor"
    },
    {
      "inputs": [],
      "name": "greet",
      "outputs": [
        {
          "internalType": "string",
          "name": "",
          "type": "string"
        }
      ],
      "stateMutability": "view",
      "type": "function"
    },
    {
      "inputs": [
        {
          "internalType": "string",
          "name": "greeting",
          "type": "string"
        }
      ],
      "name": "setGreeting",
      "outputs": [],
      "stateMutability": "nonpayable",
      "type": "function"
    },
    {
      "inputs": [],
      "name": "owner",
      "outputs": [
        {
          "internalType": "address",
          "name": "",
          "type": "address"
        }
      ],
      "stateMutability": "view",
      "type": "function"
    }
  ],
  "bytecode": "0x60806040526040518060400160405280600d81526020017f48656c6c6f2c20576f726c642e00000000000000000000000000000000000000815250600090816200004a91906200031a565b503480156200005857600080fd5b5033600160006101000a81548173ffffffffffffffffffffffffffffffffffffffff021916908373ffffffffffffffffffffffffffffffffffffffff16021790555062000401565b600081519050919050565b7f4e487b7100000000000000000000000000000000000000000000000000000000600052604160045260246000fd5b7f4e487b7100000000000000000000000000000000000000000000000000000000600052602260045260246000fd5b600060028204905060018216806200012257607f821691505b602082108103620001385762000137620000da565b5b50919050565b60008190508160005260206000209050919050565b60006020601f8301049050919050565b600082821b905092915050565b600060088302620001a27fffffffffffffffffffffffffffffffffffffffffffffffffffffffffffffffff8262000163565b620001ae868362000163565b95508019841693508086168417925050509392505050565b6000819050919050565b6000819050919050565b6000620001fb620001f5620001ef84620001c6565b620001d0565b620001c6565b9050919050565b6000819050919050565b6200021783620001da565b6200022f620002268262000202565b84845462000170565b825550505050565b600090565b6200024662000237565b620002538184846200020c565b505050565b5b818110156200027b576200026f6000826200023c565b60018101905062000259565b5050565b601f821115620002ca5762000294816200013e565b6200029f8462000153565b81016020851015620002af578190505b620002c7620002be8562000153565b83018262000258565b50505b505050565b600082821c905092915050565b6000620002ef60001984600802620002cf565b1980831691505092915050565b60006200030a8383620002dc565b9150826002028217905092915050565b6200032582620000a0565b67ffffffffffffffff811115620003415762000340620000ab565b5b6200034d825462000109565b6200035a8282856200027f565b600060209050601f8311600181146200039257600084156200037d578287015190505b620003898582620002fc565b865550620003f9565b601f198416620003a2866200013e565b60005b82811015620003cc57848901518255600182019150602085019450602081019050620003a5565b86831015620003ec5784890151620003e8601f891682620002dc565b8355505b6001600288020188555050505b505050505050565b6107b280620004116000396000f3fe608060405234801561001057600080fd5b50600436106100415760003560e01c80638da5cb5b14610046578063a413686214610064578063cfae321714610080575b600080fd5b61004e61009e565b60405161005b9190610241565b60405180910390f35b61007e600480360381019061007991906102cb565b6100c8565b005b61008861016e565b60405161009591906103a8565b60405180910390f35b6000600160009054906101000a900473ffffffffffffffffffffffffffffffffffffffff16905090565b600160009054906101000a900473ffffffffffffffffffffffffffffffffffffffff1673ffffffffffffffffffffffffffffffffffffffff163373ffffffffffffffffffffffffffffffffffffffff1614610158576040517f08c379a000000000000000000000000000000000000000000000000000000000815260040161014f9061043c565b60405180910390fd5b8181600091826101699291906106ac565b505050565b60606000805461017d906104c5565b80601f01602080910402602001604051908101604052809291908181526020018280546101a9906104c5565b80156101f65780601f106101cb576101008083540402835291602001916101f6565b820191906000526020600020905b8154815290600101906020018083116101d957829003601f168201915b5050505050905090565b600073ffffffffffffffffffffffffffffffffffffffff82169050919050565b600061022b82610200565b9050919050565b61023b81610220565b82525050565b60006020820190506102566000830184610232565b92915050565b600080fd5b600080fd5b600080fd5b600080fd5b600080fd5b60008083601f84011261028b5761028a610266565b5b8235905067ffffffffffffffff8111156102a8576102a761026b565b5b6020830191508360018202830111156102c4576102c3610270565b5b9250929050565b600080602083850312156102e2576102e161025c565b5b600083013567ffffffffffffffff811115610300576102ff610261565b5b61030c85828601610275565b92509250509250929050565b600081519050919050565b600082825260208201905092915050565b60005b83811015610352578082015181840152602081019050610337565b60008484015250505050565b6000601f19601f8301169050919050565b600061037a82610318565b6103848185610323565b9350610394818560208601610334565b61039d8161035e565b840191505092915050565b600060208201905081810360008301526103c2818461036f565b905092915050565b7f546869732066756e6374696f6e206973207265737472696374656420746f207460008201527f686520636f6e74726163742773206f776e65722e000000000000000000000000602082015250565b6000610426603483610323565b9150610431826103ca565b604082019050919050565b6000602082019050818103600083015261045581610419565b9050919050565b600082905092915050565b7f4e487b7100000000000000000000000000000000000000000000000000000000600052604160045260246000fd5b7f4e487b7100000000000000000000000000000000000000000000000000000000600052602260045260246000fd5b600060028204905060018216806104dd57607f821691505b6020821081036104f0576104ef610496565b5b50919050565b60008190508160005260206000209050919050565b60006020601f8301049050919050565b600082821b905092915050565b6000600883026105587fffffffffffffffffffffffffffffffffffffffffffffffffffffffffffffffff8261051b565b610562868361051b565b95508019841693508086168417925050509392505050565b6000819050919050565b6000819050919050565b60006105a96105a461059f8461057a565b610584565b61057a565b9050919050565b6000819050919050565b6105c38361058e565b6105d76105cf826105b0565b848454610528565b825550505050565b600090565b6105ec6105df565b6105f78184846105ba565b505050565b5b8181101561061b576106106000826105e4565b6001810190506105fd565b5050565b601f82111561066057610631816104f6565b61063a8461050b565b81016020851015610649578190505b61065d6106558561050b565b8301826105fc565b50505b505050565b600082821c905092915050565b600061068360001984600802610665565b1980831691505092915050565b600061069c8383610672565b9150826002028217905092915050565b6106b6838361045c565b67ffffffffffffffff8111156106cf576106ce610467565b5b6106d982546104c5565b6106e482828561061f565b6000601f8311600181146107135760008415610701578287013590505b61070b8582610690565b865550610773565b601f198416610721866104f6565b60005b8281101561074957848901358255600182019150602085019450602081019050610724565b868310156107665784890135610762601f891682610672565b8355505b6001600288020188555050505b5050505050505056fea2646970667358221220725799801a627b1ba9a2601e970189e061abe958efafb2817854b71b71a480cf64736f6c63430008110033",
  "immutableReferences": {},
  "source": "// SPDX-License-Identifier: UNLICENSED\npragma solidity ^0.8.17;\n\ncontract Greeter {\n    string private _greeting = \"Hello, World.\";\n\n    address private _owner;\n\n    constructor() {\n        _owner = msg.sender;\n    }\n\n    modifier restricted() {\n        require(\n            msg.sender == _owner,\n            \"This function is restricted to the contract's owner.\"\n        );\n        _;\n    }\n\n    function greet() external view returns (string memory) {\n        return _greeting;\n    }\n\n    function setGreeting(string calldata greeting) external restricted {\n        _greeting = greeting;\n    }\n\n    function owner() public view returns (address) {\n        return _owner;\n    }\n}\n",
  "sourcePath": "/home/luke/Developments/truffleprojects/bsctestnet-contract/contracts/Greeter.sol",
  "compiler": {
    "name": "solc",
    "version": "0.8.17+commit.8df45f5f.Emscripten.clang"
  },
  "schemaVersion": "3.4.11",
  "updatedAt": "2023-02-09T06:37:25.317Z",
  "devdoc": {
    "kind": "dev",
    "methods": {},
    "version": 1
  },
  "userdoc": {
    "kind": "user",
    "methods": {},
    "version": 1
  }
}